:020000040800F2
:100000000028002019040008690400086904000899
:100010006904000869040008690400080000000081
:10002000000000000000000000000000690400085B
:100030006904000800000000690400086904000861
:1000400069040008690400086904000869040008DC
:1000500069040008690400086904000869040008CC
:1000600069040008690400086904000869040008BC
:1000700069040008690400086904000869040008AC
:10008000690400086904000869040008690400089C
:10009000690400086904000869040008690400088C
:1000A000690400086904000869040008690400087C
:1000B000690400086904000869040008690400086C
:1000C000690400086904000869040008690400085C
:1000D000690400086904000869040008690400084C
:1000E00069040008690400080000000069040008B1
:1000F000690400086904000869040008690400082C
:10010000690400086904000869040008690400081B
:10011000690400086904000869040008690400080B
:1001200069040008690400086904000869040008FB
:1001300010B5054C237833B9044B13B10448AFF321
:1001400000800123237010BD00000020000000008B
:10015000B404000808B5034B1BB103490348AFF3CF
:10016000008008BD0000000004000020B404000866
:1001700080B400AF294B1B68284A43F480331360D6
:1001800000BF264B1B6803F40033002BF9D0234B30
:100190005B68224A43F00103536000BF1F4B5B685A
:1001A00003F00403002BF9D01C4B1C4A5B6853601E
:1001B0001A4B1A4A5B685360184B9B69174A43F005
:1001C00010039361154B9B69144A43F400639361D8
:1001D000134B5B68124A23F440035360104B5B6877
:1001E0000F4A43F4401353600E4B4FF6FE72DA622F
:1001F0000C4B07229A620B4B1B680A4A43F001031F
:10020000136000BF074B1B6903F00103002BF9D0FB
:1002100000BF00BFBD4680BC704700BF0010024059
:1002200000100140002C014080B483B000AF0346B1
:10023000FB80074B00225A6200BF054B5A6AFB88BD
:100240009A42FAD300BF00BF0C37BD4680BC70474E
:10025000002C014080B584B000AF0346FB80002332
:10026000FB8106E04FF47A70FFF7DEFFFB89013374
:10027000FB81FA89FB889A42F4D300BF00BF103794
:10028000BD4680BD80B582B000AFFFF771FF00F0C2
:1002900027F800F0ABF80346FB714FF47A70FFF7D4
:1002A000D9FF0E4BDB680D4A23F40053D360FB7972
:1002B000184600F083F84FF47A70FFF7CBFF074B36
:1002C000DB68064A43F40053D360FB79184600F01C
:1002D00075F84FF47A70FFF7BDFFDAE700100140C0
:1002E00080B400AF324B9B69314A43F48043936141
:1002F0002F4B9B692E4A43F0040393612C4B9B695F
:100300002B4A43F0010393612A4B5B68294A23F08F
:10031000C0035360274B5B68264A43F08003536059
:10032000244B5B68234A43F010035360214B5B6806
:10033000204A43F0200353601E4B5B681D4A23F4A0
:10034000406353601B4B5B681A4A43F4006353607D
:10035000184B5B68174A43F480735360154B5B6816
:10036000144A43F400735360134BDB68124A43F49E
:100370000053D360104BDB680F4A23F48053D360E3
:100380000D4B9B680C4A43F4506343F005039360A4
:10039000094BDB68084A43F00403D360064BDB6873
:1003A000054A43F00803D36000BFBD4680BC7047D8
:1003B00000100240000801400038014080B483B0C2
:1003C00000AF0346FB71084AFB79536000BF064B40
:1003D0001B6803F04003002BF9D000BF00BF0C37AF
:1003E000BD4680BC704700BF0038014080B483B078
:1003F00000AF00BF074B1B6803F02003002BF9D0B0
:10040000044B5B68FB71FB7918460C37BD4680BC1A
:10041000704700BF003801400D488546AFF30080AB
:100420000C480D490D4A002302E0D458C45004334F
:10043000C4188C42F9D30A4A0A4C002301E0136025
:100440000432A242FBD300F011F8FFF71BFFFEE7D6
:10045000002800200000002000000020D404000834
:10046000000000201C000020FEE7000070B5002600
:100470000C4D0D4C641BA410A64209D100F01AF8D3
:1004800000260A4D0A4C641BA410A64205D170BD7B
:1004900055F8043B98470136EEE755F8043B98477A
:1004A0000136F2E7CC040008CC040008CC040008B4
:1004B000D0040008F8B500BFF8BC08BC9E467047E1
:0C04C000F8B500BFF8BC08BC9E467047B1
:0404CC0055010008CE
:0404D00031010008EE
:0400000508000419D2
:00000001FF
